:020000040800F2
:1000000000500020111400085D130008651300085B
:100010006D130008751300087D1300080000000030
:100020000000000000000000000000008513000830
:1000300091130008000000009D130008A913000898
:1000400059140008591400085914000859140008DC
:1000500059140008591400085914000859140008CC
:10006000591400085914000859140008B513000861
:1000700059140008591400085914000859140008AC
:10008000591400085914000859140008591400089C
:10009000C91300085914000859140008591400081D
:1000A00059140008DD1300085914000859140008F9
:1000B000591400085914000859140008591400086C
:1000C000591400085914000859140008591400085C
:1000D00059140008F11300085914000859140008B5
:1000E00059140008591400085914000800000000B1
:1000F0000000000000000000000000000000000000
:0C01000000000000000000005FF808F1A3
:10010C0010B5054C237833B9044B13B10448AFF345
:10011C0000800123237010BD80010020000000002E
:10012C0010AA000808B5034B1BB103490348AFF3F1
:10013C00008008BD000000008401002010AA000807
:10014C0080B483B000AF7860124B1A88124B1A80BF
:10015C00104B5A88104B5A800E4B9A880E4B9A8033
:10016C000C4BDA880C4BDA800A4B1A890A4B1A8131
:10017C00084B5A89084B5A81064B9A89064B9A812F
:10018C00044BDA89044BDA8100BF0C37BD4680BCC6
:10019C00704700BF64050020AC03002080B483B01E
:1001AC0000AF78607B681B682A4A93424CD12A4A7C
:1001BC00137843F001031370284B1B78013BDAB220
:1001CC00264B1A70254B1B78002B19D1224A137819
:1001DC0043F002031370214B28221A70204B1B781A
:1001EC00013BDAB21E4B1A701E4B1B78013BDAB284
:1001FC001C4B1A701C4B1B78013BDAB21A4B1A7051
:10020C00174B1B78002B07D1134A137843F00403C8
:10021C001370134B0A221A70124B1B78002B07D148
:10022C000D4A137843F0080313700E4B32221A70E8
:10023C000D4B1B78002B07D1074A137843F01003A2
:10024C001370094B64221A7000BF0C37BD4680BC7A
:10025C00704700BF002C0140A803002000000020C4
:10026C0001000020020000200300002080B582B0B5
:10027C0000AF78607B681B680A4A93420DD10A4B29
:10028C001B795A1CD1B2084A11710833064A13441F
:10029C0001221946054805F04FFA00BF0837BD4644
:1002AC0080BD00BF00380140A00100201C050020CB
:1002BC0080B485B000AF78600B467B800023FB6078
:1002CC000CE0FB687A681344094A127911461A78D3
:1002DC00074B0B441A72FB680133FB607B88FA688E
:1002EC009A42EEDB00BF00BF1437BD4680BC70479E
:1002FC00A001002080B582B000AF7860E3E0784BBD
:10030C001B78062B00F2D88001A252F823F000BF14
:10031C00390300086103000895030008C9030008AD
:10032C00FD03000825040008670400087B685B795E
:10033C005A1CD1B27A6851711A467B6813441B7AE5
:10034C00552B40F0BD80664B01221A707B68002251
:10035C009A70B5E07B685B795A1CD1B27A6851719E
:10036C001A467B6813441B7A4E2B03D15C4B02223A
:10037C001A70A8E07B685B79013BDAB27B685A7132
:10038C00574B00221A709EE07B685B795A1CD1B2E5
:10039C007A6851711A467B6813441B7A452B03D13A
:1003AC004F4B03221A708EE07B685B79013BDAB20B
:1003BC007B685A714A4B00221A7084E07B685B7927
:1003CC005A1CD1B27A6851711A467B6813441B7A55
:1003DC00522B03D1424B04221A7074E07B685B7978
:1003EC00013BDAB27B685A713D4B00221A706AE00D
:1003FC007B685A797B685A707B685B795A1CD1B2DE
:10040C007A6851711A467B6813441A7A354B1A7004
:10041C00334B05221A7056E07B685B795A1CD1B2BB
:10042C007A6851711A467B6813441B7A3A2B0AD1AD
:10043C002B4B06221A702B4B1B7883F03603DAB247
:10044C007B689A703FE07B685B79013BDAB27B6832
:10045C005A71234B00221A7035E0224B1B78012B6A
:10046C000FD97B685B795A1CD1B27A6851711A46E4
:10047C007B6813441A7A7B689B785340DAB27B68AA
:10048C009A70184B1B78013BDAB2164B1A70154B4D
:10049C001B78002B16D1124B00221A707B689A78AD
:1004AC007B685B7919467B680B441B7A9A4209D1AD
:1004BC00786800F019F805E0094B00221A7002E088
:1004CC0000BF00E000BF7B685A797B681B799A42B9
:1004DC007FF415AF00BF00BF0837BD4680BD00BF1D
:1004EC009C0100207405002080B491B000AF7860AE
:1004FC00002387F83F3097F83F305A1C87F83F208D
:10050C0040333B44552203F8382C97F83F305A1CA3
:10051C0087F83F2040333B444E2203F8382C97F8A1
:10052C003F305A1C87F83F2040333B44452203F8A8
:10053C00382C97F83F305A1C87F83F2040333B4407
:10054C00522203F8382C97F83F305A1C87F83F207A
:10055C0040333B44002203F8382C97F83F305A1CA8
:10056C0087F83F2040333B443A2203F8382C7B6811
:10057C005B7802337A6813441B7AF02B16D197F808
:10058C003F305A1C87F83F2040333B44F02203F89D
:10059C00382C97F83F305A1C87F83F2040333B44A7
:1005AC000D2203F8382C03233B730CE097F83F30F3
:1005BC005A1C87F83F2040333B44DD2203F8382C8B
:1005CC0002233B7300BF002387F83E30002387F8DB
:1005DC003D3021E097F83D3040333B4413F8382C44
:1005EC0097F83E30534087F83E3097F83D20164B35
:1005FC009B79591CC8B214498871194602F1400301
:10060C003B4413F8382C7B680B4483F8082197F88B
:10061C003D30013387F83D3097F83D2097F83F3057
:10062C009A42D7D3084B9B795A1CD1B2064A917186
:10063C001A467B68134497F83E2083F8082100BFC4
:10064C004437BD4680BC7047A001002080B491B0F7
:10065C0000AF0346FB71002387F83F3097F83F301B
:10066C005A1C87F83F2040333B44552203F8382C62
:10067C0097F83F305A1C87F83F2040333B444E22BA
:10068C0003F8382C97F83F305A1C87F83F2040333A
:10069C003B44452203F8382C97F83F305A1C87F816
:1006AC003F2040333B44522203F8382C97F83F301C
:1006BC005A1C87F83F2040333B44002203F8382C67
:1006CC0097F83F305A1C87F83F2040333B443A227E
:1006DC0003F8382CFB79A02B40F0FD8097F83F30C5
:1006EC005A1C87F83F2040333B44A02203F8382C97
:1006FC0012233B739F4B1A889F4B1A8097F83F30FD
:10070C005A1C87F83F2019469B4B1A7801F140037D
:10071C003B4403F8382C97F83F305A1C87F83F209D
:10072C001946954B5A7801F140033B4403F8382C99
:10073C00904B5A88904B1A8097F83F305A1C87F888
:10074C003F2019468C4B1A7801F140033B4403F8C7
:10075C00382C97F83F305A1C87F83F201946864BA7
:10076C005A7801F140033B4403F8382C814B9A88AA
:10077C00814B1A8097F83F305A1C87F83F20194656
:10078C007D4B1A7801F140033B4403F8382C97F861
:10079C003F305A1C87F83F201946774B5A7801F1A5
:1007AC0040033B4403F8382C724BDA88724B1A80A6
:1007BC0097F83F305A1C87F83F2019466E4B1A7831
:1007CC0001F140033B4403F8382C97F83F305A1C96
:1007DC0087F83F201946684B5A7801F140033B4497
:1007EC0003F8382C634B1A89634B1A8097F83F3007
:1007FC005A1C87F83F2019465F4B1A7801F14003C9
:10080C003B4403F8382C97F83F305A1C87F83F20AC
:10081C001946594B5A7801F140033B4403F8382CE4
:10082C00544B5A89544B1A8097F83F305A1C87F80E
:10083C003F201946504B1A7801F140033B4403F812
:10084C00382C97F83F305A1C87F83F2019464A4BF2
:10085C005A7801F140033B4403F8382C454B9A89F4
:10086C00454B1A8097F83F305A1C87F83F201946A1
:10087C00414B1A7801F140033B4403F8382C97F8AC
:10088C003F305A1C87F83F2019463B4B5A7801F1F0
:10089C0040033B4403F8382C364BDA89364B1A802C
:1008AC0097F83F305A1C87F83F201946324B1A787C
:1008BC0001F140033B4403F8382C97F83F305A1CA5
:1008CC0087F83F2019462C4B5A7801F140033B44E2
:1008DC0003F8382C0CE097F83F305A1C87F83F206F
:1008EC0040333B44DD2203F8382C02233B7300BF1A
:1008FC00002387F83E30002387F83D3021E097F83D
:10090C003D3040333B4413F8382C97F83E3053407D
:10091C0087F83E3097F83D20184B9B79591CC8B28C
:10092C0016498871194602F140033B4413F8382CE0
:10093C00124B0B4483F8082197F83D30013387F8AC
:10094C003D3097F83D2097F83F309A42D7D30B4B68
:10095C009B795A1CD1B2094A91711A46074B134420
:10096C0097F83E2083F8082100BF4437BD4680BC71
:10097C00704700BFAC030020C0030020A001002082
:10098C0080B582B000AF00F063FD00F0E1F800F03C
:10099C00F3FA00F0D3FA00F0A7FA09F00BFB00F021
:1009AC0035F900F0D5F900F051FA00F0FFF9604884
:1009BC0004F0C4FA5F4809F033FC5F4B00221A7153
:1009CC005D4B00225A715C4B00229A715A4B0022EB
:1009DC00DA71594B1B790833574A134401221946D3
:1009EC00564804F0A9FE08225549564800F08EFEE0
:1009FC0000224FF40051544801F0A6FE4FF49670BB
:100A0C0000F088FD01224FF400514F4801F09CFE8C
:100A1C004FF4967000F07EFD00224FF400514A48CE
:100A2C0001F092FE4FF4967000F074FD01224FF429
:100A3C000051454801F088FE4FF4967000F06AFDB5
:100A4C0000224FF40051404801F07EFE4FF49670A6
:100A5C0000F060FD01224FF400513B4801F074FEA0
:100A6C003A4B1B7803F00103DBB2002B09D0374A59
:100A7C0013786FF30003137008223149314800F0EA
:100A8C0045FE324B1B7803F00403DBB2002B04D081
:100A9C002E4A13786FF3820313702C4B1B7803F0E0
:100AAC000803DBB2002B09D0284A13786FF3C30379
:100ABC0013704FF40051244801F05EFE234B1B7859
:100ACC0003F01003DBB2002B07D0204A13786FF32E
:100ADC0004131370A020FFF7B9FD174B5A79164B6E
:100AEC001B799A4202D01448FFF704FC124BDA79B6
:100AFC00114B9B799A42B3D00F4B9A790E4BDB7901
:100B0C00D31AFB710C4BDB7903F584730A4A13443B
:100B1C00FA7992B21146184609F05CFB0346002B99
:100B2C009ED1054BDB790133DAB2034BDA7197E7CF
:100B3C008C040020BD020008A00100201C05002030
:100B4C0064050020C403002000100140A80300200D
:100B5C0080B594B000AF07F1280328220021184675
:100B6C0009F024FF07F1140300221A605A609A60FE
:100B7C00DA601A613B1D00221A605A609A60DA60D2
:100B8C000123BB624FF48033FB6200233B630123E0
:100B9C00BB6302237B644FF48033BB644FF4E013DC
:100BAC00FB6407F12803184603F0B2FC0346002B44
:100BBC0001D000F05FFA0F237B610223BB6100239D
:100BCC00FB614FF480633B6200237B6207F11403EB
:100BDC000221184603F01EFF0346002B01D000F043
:100BEC0049FA12237B604FF40043FB6000233B6106
:100BFC003B1D184604F09CF80346002B01D000F076
:100C0C0039FA00BF5037BD4680BD000080B584B0B6
:100C1C0000AF3B1D00221A605A609A604A4B4B4A47
:100C2C001A60494B4FF480729A60474B00221A733A
:100C3C00454B00221A75444B4FF46022DA61424B4B
:100C4C0000225A60404B08221A613F4800F086FC93
:100C5C000346002B01D000F00DFA00237B6001232A
:100C6C00BB600023FB603B1D1946374800F03EFE7D
:100C7C000346002B01D000F0FDF901237B60022319
:100C8C00BB603B1D1946304800F030FE0346002B7C
:100C9C0001D000F0EFF902237B600323BB603B1D06
:100CAC001946294800F022FE0346002B01D000F023
:100CBC00E1F903237B600423BB603B1D19462248EA
:100CCC0000F014FE0346002B01D000F0D3F90423EE
:100CDC007B600523BB603B1D19461B4800F006FEDC
:100CEC000346002B01D000F0C5F905237B600623D9
:100CFC00BB603B1D1946144800F0F8FD0346002B61
:100D0C0001D000F0B7F906237B600723BB603B1DC5
:100D1C0019460D4800F0EAFD0346002B01D000F007
:100D2C00A9F907237B600823BB603B1D19460648C5
:100D3C0000F0DCFD0346002B01D000F09BF900BF56
:100D4C001037BD4680BD00BFC40300200024014005
:100D5C0080B500AF124B134A1A60114B124A5A60FD
:100D6C000F4B00229A600E4B0022DA600C4B4FF4B2
:100D7C0080421A610A4B00225A61094B00229A6187
:100D8C00074B0022DA61064B00221A62044801F07C
:100D9C000DFD0346002B01D000F06CF900BF80BDA7
:100DAC003804002000580040A086010080B586B0B1
:100DBC0000AF07F1080300221A605A609A60DA60EB
:100DCC003B4600221A605A601E4B1F4A1A601D4B8C
:100DDC0047225A601B4B00229A601A4BF922DA60A8
:100DEC00184B00221A61174B00225A61154B002236
:100DFC009A61144804F052F80346002B01D000F01D
:100E0C0039F94FF48053BB6007F1080319460D48BC
:100E1C0004F0EEF90346002B01D000F02BF900236F
:100E2C003B6000237B603B461946064804F0C4FB3C
:100E3C000346002B01D000F01DF900BF1837BD464A
:100E4C0080BD00BF8C040020002C014080B586B012
:100E5C0000AF07F1080300221A605A609A60DA604A
:100E6C003B4600221A605A601D4B1E4A1A601C4BEE
:100E7C0000225A601A4B00229A60194B4FF6FF72EF
:100E8C00DA60174B00221A61154B00229A61144844
:100E9C0004F004F80346002B01D000F0EBF84FF4FB
:100EAC008053BB6007F1080319460D4804F0A0F904
:100EBC000346002B01D000F0DDF800233B6000233B
:100ECC007B603B461946064804F076FB0346002B34
:100EDC0001D000F0CFF800BF1837BD4680BD00BF71
:100EEC00D40400200008004080B500AF114B124A1A
:100EFC001A60104B4FF4E1325A600E4B00229A608C
:100F0C000C4B0022DA600B4B00221A61094B0C22AD
:100F1C005A61084B00229A61064B0022DA6105489F
:100F2C0004F0BAFB0346002B01D000F0A3F800BF7D
:100F3C0080BD00BF1C0500200038014080B582B088
:100F4C0000AF0C4B5B690B4A43F001035361094B37
:100F5C005B6903F001037B607B68002200210B209E
:100F6C0000F095FF0B2000F0AEFF00BF0837BD4628
:100F7C0080BD00BF0010024080B588B000AF07F103
:100F8C00100300221A605A609A60DA60354B9B6934
:100F9C00344A43F010039361324B9B6903F0100306
:100FAC00FB60FB682F4B9B692E4A43F02003936137
:100FBC002C4B9B6903F02003BB60BB68294B9B69DE
:100FCC00284A43F004039361264B9B6903F0040306
:100FDC007B607B68234B9B69224A43F00803936137
:100FEC00204B9B6903F008033B603B6801224FF4E4
:100FFC0000511D4801F0A8FB00224FF480711B48E2
:10100C0001F0A2FB4FF400533B6101237B610023F1
:10101C00BB610223FB6107F110031946124801F072
:10102C000FFA4FF480533B6100237B610123BB61BA
:10103C0007F1100319460E4801F002FA4FF48073C1
:10104C003B6101237B610023BB610223FB6107F140
:10105C0010031946054801F0F3F900BF2037BD46CF
:10106C0080BD00BF0010024000100140000801408C
:10107C00000C014080B400AF72B600BF00BFFDE7AA
:10108C0080B485B000AF154B9B69144A43F0010343
:10109C009361124B9B6903F00103BB60BB680F4B60
:1010AC00DB690E4A43F08053D3610C4BDB6903F0D0
:1010BC0080537B607B680A4B5B68FB60FB6823F0AA
:1010CC00E063FB60FB6843F00073FB60044AFB6861
:1010DC00536000BF1437BD4680BC704700100240FF
:1010EC000000014080B588B000AF786007F11003B4
:1010FC0000221A605A609A60DA607B681B68284A82
:10110C00934249D1274B9B69264A43F40073936160
:10111C00244B9B6903F40073FB60FB68214B9B69B8
:10112C00204A43F0040393611E4B9B6903F00403B4
:10113C00BB60BB68FF233B6103237B6107F110039A
:10114C001946194801F07CF9184B194A1A60174BCB
:10115C0000225A60154B00229A60144B8022DA60F0
:10116C00124B4FF480721A61104B4FF480625A612B
:10117C000E4B00229A610D4B0022DA610B4800F0F5
:10118C00BDFE0346002B01D0FFF774FF7B68074AB6
:10119C001A62064A7B68536200BF2037BD4680BD89
:1011AC00002401400010024000080140F40300201C
:1011BC000800024080B588B000AF786007F11003DA
:1011CC0000221A605A609A60DA607B681B68164AC3
:1011DC00934224D1154B9B69144A43F00803936145
:1011EC00124B9B6903F00803FB60FB684FF44063F0
:1011FC003B6112237B610323FB6107F1100319464A
:10120C000B4801F01DF9094BDB69084A43F48003D4
:10121C00D361064BDB6903F48003BB60BB6800BF82
:10122C002037BD4680BD00BF005800400010024072
:10123C00000C014080B584B000AF78607B681B68FF
:10124C00164A934214D1164B9B69154A43F400631A
:10125C009361134B9B6903F40063FB60FB680022F2
:10126C000021192000F013FE192000F02CFE10E0D4
:10127C007B681B680B4A93420BD1094BDB69084A0C
:10128C0043F00403D361064BDB6903F00403BB603A
:10129C00BB6800BF1037BD4680BD00BF002C0140AD
:1012AC00001002400008004080B588B000AF7860A4
:1012BC0007F1100300221A605A609A60DA607B68AA
:1012CC001B68204A934239D11F4B9B691E4A43F439
:1012DC00804393611C4B9B6903F48043FB60FB6868
:1012EC00194B9B69184A43F004039361164B9B6995
:1012FC0003F00403BB60BB684FF400733B61022333
:10130C007B610323FB6107F1100319460F4801F0C1
:10131C0097F84FF480633B6100237B610023BB6132
:10132C0007F110031946094801F08AF80022002140
:10133C00252000F0ACFD252000F0C5FD00BF2037B6
:10134C00BD4680BD0038014000100240000801403D
:10135C0080B400AF00BFFDE780B400AF00BFFDE775
:10136C0080B400AF00BFFDE780B400AF00BFFDE765
:10137C0080B400AF00BFFDE780B400AF00BFBD4636
:10138C0080BC704780B400AF00BFBD4680BC7047C6
:10139C0080B400AF00BFBD4680BC704780B500AFC5
:1013AC0000F09CF800BF80BD80B500AF024800F093
:1013BC0013FF00BF80BD00BFF403002080B500AF59
:1013CC00024801F05CFC00BF80BD00BF500C002047
:1013DC0080B500AF024803F003FE00BF80BD00BF24
:1013EC008C04002080B500AF024804F0CBF900BF9C
:1013FC0080BD00BF1C05002080B400AF00BFBD46FF
:10140C0080BC7047FFF7F8FF0B480C490C4A0023CF
:10141C0002E0D458C4500433C4188C42F9D3094A9E
:10142C00094C002301E013600432A242FBD309F003
:10143C00C5FAFFF7A5FA70470000002080010020D4
:10144C00A4AA00088001002060110020FEE7000023
:10145C0080B500AF084B1B68074A43F010031360BC
:10146C00032000F009FD0F2000F008F8FFF708FE3C
:10147C000023184680BD00BF0020024080B582B01A
:10148C0000AF7860124B1A68124B1B7819464FF458
:10149C007A73B3FBF1F3B2FBF3F3184600F021FDC2
:1014AC000346002B01D001230EE07B680F2B0AD8DA
:1014BC00002279684FF0FF3000F0E9FC064A7B68A7
:1014CC001360002300E0012318460837BD4680BD99
:1014DC00040000200C0000200800002080B400AFA5
:1014EC00054B1B781A46054B1B681344034A1360C3
:1014FC0000BFBD4680BC70470C0000207805002062
:10150C0080B400AF024B1B681846BD4680BC7047C8
:10151C007805002080B584B000AF7860FFF7F0FF4D
:10152C00B8607B68FB60FB68B3F1FF3F05D00A4BEA
:10153C001B781A46FB681344FB6000BFFFF7E0FF03
:10154C000246BB68D31AFA689A42F7D800BF00BFAC
:10155C001037BD4680BD00BF0C00002080B586B0A2
:10156C0000AF78600023FB7500233B610023BB6058
:10157C000023FB607B68002B01D10123BEE07B685C
:10158C009B68002B7B689B6A002B09D17B6800222F
:10159C00DA627B68002283F824207868FFF7A2FDCA
:1015AC00786800F0F5FA0346FB757B689B6A03F0DC
:1015BC001003002B40F09980FB7D002B40F09580B0
:1015CC007B689B6A23F4885323F0020343F00202E6
:1015DC007B689A627B685A687B68DB691A437B6814
:1015EC001B7B5B001343BA681343BB607B689B682F
:1015FC00B3F5807F03D07B689B68012B02D14FF43D
:10160C00807300E000233A6913433B617B681B7DC8
:10161C00012B19D17B681B7B002B09D17B689B6943
:10162C00013B5A033B69134343F400633B610BE0FA
:10163C007B689B6A43F020027B689A627B68DB6A5A
:10164C0043F001027B68DA627B681B685B6823F4F9
:10165C0069417B681B683A690A435A607B681B685E
:10166C009A68284B13407A681268B9680B439360E8
:10167C007B689B68B3F5807F03D07B689B68012BEC
:10168C0004D17B681B69013B1B05FB607B681B68F5
:10169C00DB6A23F470017B681B68FA680A43DA6220
:1016AC007B681B689A68184B1340BA689A420BD136
:1016BC007B680022DA627B689B6A23F0030343F0A9
:1016CC0001027B689A6218E07B689B6A23F0120324
:1016DC0043F010027B689A627B68DB6A43F001027C
:1016EC007B68DA620123FB7507E07B689B6A43F039
:1016FC0010027B689A620123FB75FB7D1846183734
:10170C00BD4680BDFDF7E1FFFE0E1FFF80B586B024
:10171C0000AFF860B9607A600023FB75FB681B684A
:10172C00644A934204D0FB681B68634A934206D117
:10173C00604B5B6803F47023002B40F0B380FB68B4
:10174C0093F82430012B01D10223AEE0FB68012277
:10175C0083F82420F86800F0C1F90346FB75FB7D83
:10176C00002B40F09A80FB689B6A23F4706323F093
:10177C00010343F48072FB689A62FB681B684E4A53
:10178C00934205D14B4B5B6803F47023002B15D1AE
:10179C00FB689B6A23F48012FB689A62FB681B68E7
:1017AC005B6803F48063002B26D0FB689B6A23F4F0
:1017BC00405343F48052FB689A621DE0FB689B6ABD
:1017CC0043F48012FB689A62FB681B68394A9342A7
:1017DC0004D0FB681B68384A93420DD1354B5B68CB
:1017EC0003F48063002B07D0FB689B6A23F44053FF
:1017FC0043F48052FB689A62FB689B6A03F4805343
:10180C00002B06D0FB68DB6A23F00602FB68DA6269
:10181C0002E0FB680022DA62FB68002283F82420D5
:10182C00FB681B6A254A9A62FB681B6A244ADA62C7
:10183C00FB681B6A234A1A63FB681B686FF0020281
:10184C001A60FB681B689A68FB681B6842F480721C
:10185C009A60FB68186AFB681B684C331946BA68B7
:10186C007B6800F0A5FBFB681B689B6803F4602396
:10187C00B3F5602F08D1FB681B689A68FB681B687E
:10188C0042F4A0029A600FE0FB681B689A68FB6840
:10189C001B6842F480129A6006E0FB68002283F811
:1018AC00242001E00123FB75FB7D18461837BD464B
:1018BC0080BD00BF00240140002801401F1C00080F
:1018CC009B1C0008B71C000880B483B000AF786084
:1018DC0000BF0C37BD4680BC704780B483B000AFEE
:1018EC00786000BF0C37BD4680BC704780B485B0B3
:1018FC0000AF786039600023FB730023BB607B680A
:10190C0093F82430012B01D10223DCE07B68012207
:10191C0083F824203B685B68062B1CD87B681B680B
:10192C00596B3B685A6813469B001344053B1F22B6
:10193C0002FA03F3DB4319403B6818683B685A68AA
:10194C0013469B001344053B00FA03F27B681B68AB
:10195C000A435A633CE03B685B680C2B1CD87B68E1
:10196C001B68196B3B685A6813469B001344233B56
:10197C001F2202FA03F3DB4319403B6818683B68EB
:10198C005A6813469B001344233B00FA03F27B680E
:10199C001B680A431A631BE07B681B68D96A3B68A7
:1019AC005A6813469B001344413B1F2202FA03F36F
:1019BC00DB4319403B6818683B685A6813469B0028
:1019CC001344413B00FA03F27B681B680A43DA625A
:1019DC003B681B68092B1CD97B681B68D9683B6862
:1019EC001A6813465B0013441E3B072202FA03F3EA
:1019FC00DB4319403B6898683B681A6813465B00E8
:101A0C0013441E3B00FA03F27B681B680A43DA603E
:101A1C0019E07B681B6819693B681A6813465B0000
:101A2C001344072202FA03F3DB4319403B6898681E
:101A3C003B681A6813465B00134400FA03F27B6898
:101A4C001B680A431A613B681B68102B03D03B6868
:101A5C001B68112B32D17B681B681D4A934225D120
:101A6C007B681B689B6803F40003002B26D17B6802
:101A7C001B689A687B681B6842F400029A603B689A
:101A8C001B68102B1AD1134B1B68134AA2FB0323A0
:101A9C009A0C13469B0013445B00BB6002E0BB68CE
:101AAC00013BBB60BB68002BF9D107E07B689B6AEC
:101ABC0043F020027B689A620123FB737B6800224F
:101ACC0083F82420FB7B18461437BD4680BC704736
:101ADC00002401400400002083DE1B4380B584B049
:101AEC0000AF78600023FB600023BB607B681B6841
:101AFC009B6803F00103012B40D07B681B689A683C
:101B0C007B681B6842F001029A601F4B1B681F4ADE
:101B1C00A2FB03239B0CBB6002E0BB68013BBB60D8
:101B2C00BB68002BF9D1FFF7EBFCF8601FE0FFF767
:101B3C00E7FC0246FB68D31A022B18D97B681B689A
:101B4C009B6803F00103012B11D07B689B6A43F067
:101B5C0010027B689A627B68DB6A43F001027B6847
:101B6C00DA627B68002283F82420012307E07B687B
:101B7C001B689B6803F00103012BD8D10023184686
:101B8C001037BD4680BD00BF0400002083DE1B4320
:101B9C0080B584B000AF78600023FB607B681B6865
:101BAC009B6803F00103012B2ED17B681B689A689C
:101BBC007B681B6822F001029A60FFF7A1FCF860B9
:101BCC001BE0FFF79DFC0246FB68D31A022B14D9CD
:101BDC007B681B689B6803F00103012B0DD17B68AC
:101BEC009B6A43F010027B689A627B68DB6A43F065
:101BFC0001027B68DA62012307E07B681B689B6843
:101C0C0003F00103012BDCD0002318461037BD462E
:101C1C0080BD80B584B000AF78607B685B6AFB6088
:101C2C00FB689B6A03F05003002B27D1FB689B6A6F
:101C3C0043F40072FB689A62FB681B689B6803F4B0
:101C4C006023B3F5602F15D1FB681B7B002B11D1E2
:101C5C00FB689B6A23F48072FB689A62FB689B6A40
:101C6C0003F48053002B05D1FB689B6A43F00102FF
:101C7C00FB689A62F868FEF763FA04E0FB681B6A7B
:101C8C001B6B7868984700BF1037BD4680BD80B588
:101C9C0084B000AF78607B685B6AFB60F868FFF724
:101CAC0013FE00BF1037BD4680BD80B584B000AFB9
:101CBC0078607B685B6AFB60FB689B6A43F0400260
:101CCC00FB689A62FB68DB6A43F00402FB68DA6229
:101CDC00F868FFF702FE00BF1037BD4680BD00005C
:101CEC0080B485B000AF78607B6803F00703FB60BD
:101CFC000C4BDB68BB60BA684FF6FF031340BB604C
:101D0C00FB681A02BB68134343F0BF6343F4003310
:101D1C00BB60044ABB68D36000BF1437BD4680BCAF
:101D2C00704700BF00ED00E080B400AF044BDB68EF
:101D3C001B0A03F007031846BD4680BC704700BF62
:101D4C0000ED00E080B483B000AF0346FB7197F95F
:101D5C000730002B0BDBFB7903F01F02064997F9C8
:101D6C0007305B09012000FA02F241F8232000BF82
:101D7C000C37BD4680BC704700E100E080B483B0F6
:101D8C0000AF03463960FB7197F90730002B0ADB73
:101D9C003B68DAB20C4997F907301201D2B20B4406
:101DAC0083F800230AE03B68DAB20849FB7903F0B8
:101DBC000F03043B1201D2B20B441A7600BF0C374E
:101DCC00BD4680BC704700BF00E100E000ED00E0C4
:101DDC0080B489B000AFF860B9607A60FB6803F03A
:101DEC000703FB61FB69C3F10703042B28BF042322
:101DFC00BB61FB690433062B02D9FB69033B00E092
:101E0C0000237B614FF0FF32BB6902FA03F3DA4324
:101E1C00BB681A407B699A404FF0FF317B6901FA2D
:101E2C0003F3D9437B680B40134318462437BD4654
:101E3C0080BC704780B582B000AF78607B68013B96
:101E4C00B3F1807F01D301230FE00A4A7B68013B89
:101E5C0053600F214FF0FF30FFF790FF054B00222E
:101E6C009A60044B07221A60002318460837BD46B7
:101E7C0080BD00BF10E000E080B582B000AF78609C
:101E8C007868FFF72DFF00BF0837BD4680BD80B5D1
:101E9C0086B000AF0346B9607A60FB7300237B61A8
:101EAC00FFF742FF78617A68B9687869FFF790FFAD
:101EBC00024697F90F3011461846FFF75FFF00BF37
:101ECC001837BD4680BD80B582B000AF0346FB71AC
:101EDC0097F907301846FFF735FF00BF0837BD46A6
:101EEC0080BD80B582B000AF78607868FFF7A2FF44
:101EFC00034618460837BD4680BD000080B485B047
:101F0C0000AF78600023FB607B68002B01D10123BC
:101F1C0043E07B681B681A46224B1344224AA2FBFF
:101F2C0003231B099A007B681A647B681F4ADA63D7
:101F3C007B68022283F821207B681B681B68FB608E
:101F4C00FB6823F47F5323F03003FB607B685A68F3
:101F5C007B689B681A437B68DB681A437B681B6948
:101F6C001A437B685B691A437B689B691A437B68DD
:101F7C00DB691343FA681343FB607B681B68FA68E0
:101F8C001A607B6800229A637B68012283F8212007
:101F9C007B68002283F82020002318461437BD46A6
:101FAC0080BC7047F8FFFDBFCDCCCCCC000002400C
:101FBC0080B586B000AFF860B9607A603B600023F2
:101FCC00FB75FB6893F82030012B01D102234BE009
:101FDC00FB68012283F82020FB6893F82130DBB2E8
:101FEC00012B3AD1FB68022283F82120FB680022E6
:101FFC009A63FB681B681A68FB681B6822F0010275
:10200C001A603B687A68B968F86800F0EBF9FB680D
:10201C00DB6A002B08D0FB681B681A68FB681B681E
:10202C0042F00E021A600FE0FB681B681A68FB682E
:10203C001B6822F004021A60FB681B681A68FB68B4
:10204C001B6842F00A021A60FB681B681A68FB687E
:10205C001B6842F001021A6005E0FB68002283F85D
:10206C0020200223FB75FB7D18461837BD4680BD2A
:10207C0080B485B000AF78600023FB737B6893F865
:10208C002130DBB2022B08D07B6804229A637B6878
:10209C00002283F82020012320E07B681B681A684B
:1020AC007B681B6822F00E021A607B681B681A683A
:1020BC007B681B6822F001021A607B681A6C7B68D3
:1020CC00DB6B012101FA02F25A607B68012283F872
:1020DC0021207B68002283F82020FB7B18461437D4
:1020EC00BD4680BC7047000080B584B000AF7860FE
:1020FC000023FB737B6893F82130DBB2022B05D0F5
:10210C007B6804229A630123FB7351E07B681B6894
:10211C001A687B681B6822F00E021A607B681B68C9
:10212C001A687B681B6822F001021A607B681B68C6
:10213C00224A934229D07B681B68214A934222D0C1
:10214C007B681B681F4A93421AD07B681B681E4A27
:10215C00934212D07B681B681C4A93420AD07B685E
:10216C001B681B4A934202D14FF480130EE04FF0D0
:10217C0080730BE04FF4803308E04FF4805305E09C
:10218C004FF4807302E0102300E00123114A5360E6
:10219C007B68012283F821207B68002283F82020B1
:1021AC007B685B6B002B03D07B685B6B7868984714
:1021BC00FB7B18461037BD4680BD00BF08000240AF
:1021CC001C00024030000240440002405800024013
:1021DC006C0002400000024080B584B000AF786013
:1021EC007B68DB6B1B68FB607B681B681B68BB60D8
:1021FC007B681B6C04229A40FB681340002B4FD069
:10220C00BB6803F00403002B4AD07B681B681B6877
:10221C0003F02003002B07D17B681B681A687B68CE
:10222C001B6822F004021A607B681B68664A9342A2
:10223C0029D07B681B68654A934222D07B681B6857
:10224C00634A93421AD07B681B68624A934212D04D
:10225C007B681B68604A93420AD07B681B685F4AA4
:10226C00934202D14FF480030EE04FF080630BE0F9
:10227C004FF4802308E04FF4804305E04FF4806373
:10228C0002E0402300E00423554A53607B68DB6A7C
:10229C00002B00F094807B68DB6A786898478EE0AE
:1022AC007B681B6C02229A40FB681340002B56D0B3
:1022BC00BB6803F00203002B51D07B681B681B68C2
:1022CC0003F02003002B0BD17B681B681A687B681A
:1022DC001B6822F00A021A607B68012283F8212015
:1022EC007B681B68384A934229D07B681B68374A45
:1022FC00934222D07B681B68354A93421AD07B6884
:10230C001B68344A934212D07B681B68324A934252
:10231C000AD07B681B68314A934202D14FF40013F8
:10232C000EE04FF000730BE04FF4003308E04FF475
:10233C00005305E04FF4007302E0202300E0022379
:10234C00274A53607B68002283F820207B689B6AB5
:10235C00002B34D07B689B6A786898472FE07B68A9
:10236C001B6C08229A40FB681340002B28D0BB68DA
:10237C0003F00803002B23D07B681B681A687B686A
:10238C001B6822F00E021A607B681A6C7B68DB6B90
:10239C00012101FA02F25A607B6801229A637B6880
:1023AC00012283F821207B68002283F820207B689F
:1023BC001B6B002B04D07B681B6B7868984700BFA5
:1023CC0000BF1037BD4680BD080002401C00024013
:1023DC003000024044000240580002406C000240B1
:1023EC000000024080B485B000AFF860B9607A603C
:1023FC003B60FB681A6CFB68DB6B012101FA02F293
:10240C005A60FB681B683A685A60FB685B68102B63
:10241C0008D1FB681B687A689A60FB681B68BA680D
:10242C00DA6007E0FB681B68BA689A60FB681B6897
:10243C007A68DA6000BF1437BD4680BC7047000074
:10244C0080B48BB000AF7860396000237B620023CE
:10245C003B6269E101227B6A02FA03F3FB613B6890
:10246C001B68FA691340BB61BA69FB699A4240F078
:10247C0058813B685B689A4A93425ED0984A934273
:10248C0075D8984A934258D0964A93426FD8964A38
:10249C00934252D0944A934269D8944A93424CD076
:1024AC00924A934263D8924A934246D0904A9342BE
:1024BC005DD8122B2AD8122B59D801A252F823F02E
:1024CC00472500082125000833250008752500083C
:1024DC007B2500087B2500087B2500087B25000850
:1024EC007B2500087B2500087B2500087B25000840
:1024FC007B2500087B2500087B2500087B25000830
:10250C007B250008292500083D250008794A9342BF
:10251C0013D02CE03B68DB683B6229E03B68DB684E
:10252C0004333B6224E03B68DB6808333B621FE00A
:10253C003B68DB680C333B621AE03B689B68002B02
:10254C0002D104233B6213E03B689B68012B05D14D
:10255C0008233B627B68FA691A6109E008233B6235
:10256C007B68FA695A6103E000233B6200E000BF1C
:10257C00BB69FF2B01D87B6801E07B6804337B616E
:10258C00BB69FF2B02D87B6A9B0002E07B6A083B8D
:10259C009B003B617B691A680F213B6901FA03F3CD
:1025AC00DB431A40396A3B6901FA03F31A437B692E
:1025BC001A603B685B6803F08053002B00F0B1801D
:1025CC004D4B9B694C4A43F0010393614A4B9B6909
:1025DC0003F00103BB60BB68484A7B6A9B0802336B
:1025EC0052F82330FB607B6A03F003039B000F223D
:1025FC0002FA03F3DB43FA681340FB607B68404A42
:10260C00934213D07B683F4A93420DD07B683E4A7D
:10261C00934207D07B683D4A934201D1032306E0E5
:10262C00042304E0022302E0012300E000237A6A81
:10263C0002F0030292009340FA681343FB602F49A7
:10264C007B6A9B080233FA6841F823203B685B687D
:10265C0003F48013002B06D02D4B9A682C49BB69D0
:10266C0013438B6006E02A4B9A68BB69DB4328490D
:10267C0013408B603B685B6803F40013002B06D09F
:10268C00234BDA682249BB691343CB6006E0204B2D
:10269C00DA68BB69DB431E491340CB603B685B685F
:1026AC0003F40033002B06D0194B5A681849BB6948
:1026BC0013434B6006E0164B5A68BB69DB43144965
:1026CC0013404B603B685B6803F48033002B21D0D4
:1026DC000F4B1A680E49BB6913430B6021E000BF16
:1026EC0000003210000031100000221000002110F8
:1026FC0000001210000011100010024000000140F8
:10270C0000080140000C0140001001400014014081
:10271C00000401400B4B1A68BB69DB4309491340A9
:10272C000B607B6A01337B623B681A687B6A22FA16
:10273C0003F3002B7FF48EAE00BF00BF2C37BD46D9
:10274C0080BC70470004014080B483B000AF786057
:10275C000B467B8013467B707B78002B03D07A88EA
:10276C007B681A6103E07B881A047B681A6100BFDE
:10277C000C37BD4680BC704780B485B000AF786024
:10278C000B467B807B68DB68FB607A88FB681340B8
:10279C001A04FB68D9437B880B401A437B681A6187
:1027AC0000BF1437BD4680BC7047000080B584B0B4
:1027BC0000AF78607B68002B01D101232BE17B6893
:1027CC0093F83D30DBB2002B06D17B68002283F8F6
:1027DC003C207868FEF7EEFC7B68242283F83D20D1
:1027EC007B681B681A687B681B6822F001021A6000
:1027FC007B681B681A687B681B6842F400421A608D
:10280C007B681B681A687B681B6822F400421A609C
:10281C0002F048FAF8607B685B68814A934207D8FB
:10282C00FB68804A934294BF01230023DBB206E08D
:10283C00FB687D4A934294BF01230023DBB2002B3B
:10284C0001D00123E7E0FB68784AA2FB03239B0C31
:10285C00BB607B681B685B6823F03F017B681B686F
:10286C00BA680A435A607B681B681B6A23F03F01F5
:10287C007B685B686A4A934202D8BB68013309E003
:10288C00BB684FF4967202FB03F3694AA2FB032365
:10289C009B0901337A6812680B4313627B681B68CF
:1028AC00DB6923F44F4222F0FF027B685B685C49D2
:1028BC008B4219D8FB68591E7B685B685B00B1FBC7
:1028CC00F3F3591C40F6FC730B40002B0AD0FB6849
:1028DC00591E7B685B685B00B1FBF3F30133C3F3F8
:1028EC000B0351E004234FE07B689B68002B11D154
:1028FC00FB68581E7B6859680B465B000B44B0FBA9
:10290C00F3F30133C3F30B03002B0CBF01230023A0
:10291C00DBB212E0FB68581E7B6859680B469B00C3
:10292C000B4499000B44B0FBF3F30133C3F30B03DB
:10293C00002B0CBF01230023DBB2002B01D00123A1
:10294C0022E07B689B68002B0ED1FB68581E7B68CD
:10295C0059680B465B000B44B0FBF3F30133C3F334
:10296C000B0343F400430FE0FB68581E7B68596867
:10297C000B469B000B4499000B44B0FBF3F3013363
:10298C00C3F30B0343F44043796809681343CB61E9
:10299C007B681B681B6823F0C0017B68DA697B6865
:1029AC001B6A1A437B681B680A431A607B681B68A6
:1029BC009B6823F4034323F0FF037A6811697A6858
:1029CC00D26811437A6812680B4393607B681B686A
:1029DC00DB6823F0FF017B685A697B689B691A43AB
:1029EC007B681B680A43DA607B681B681A687B6823
:1029FC001B6842F001021A607B6800221A647B6833
:102A0C00202283F83D207B6800221A637B68002219
:102A1C0083F83E20002318461037BD4680BD00BF0A
:102A2C00A08601007F841E00FF083D0083DE1B434F
:102A3C00D34D6210F0B58BB006AF78607B68002B7D
:102A4C0001D10123F1E07B6893F8A932DBB2002BB2
:102A5C0006D17B68002283F8A822786807F0FCFC7A
:102A6C007B68032283F8A9227B681B68184603F055
:102A7C00C1FB7B681B683B607E686D4606F11004E9
:102A8C000FCC0FC523682B60331D0ECB386803F0B9
:102A9C008BFB0346002B05D07B68022283F8A9220E
:102AAC000123C2E07B681B680021184603F0BCFBC5
:102ABC000023FB7340E0FB7B79685A1C13469B0098
:102ACC001344DB000B44013301221A70FB7B796841
:102ADC005A1C13469B001344DB000B44FA7B1A7000
:102AEC00FB7B79685A1C13469B001344DB000B4498
:102AFC00033300221A70FA7B796813469B00134447
:102B0C00DB000B44383300221A60FA7B79681346D9
:102B1C009B001344DB000B443C3300221A60FA7B0D
:102B2C00796813469B001344DB000B4440330022AE
:102B3C001A60FB7B0133FB73FA7B7B685B689A4200
:102B4C00B9D30023FB7344E0FA7B796813469B00EE
:102B5C001344DB000B4403F2691300221A70FA7B56
:102B6C00796813469B001344DB000B4403F5B473E4
:102B7C00FA7B1A70FA7B796813469B001344DB00CE
:102B8C000B4403F26B1300221A70FA7B796813461C
:102B9C009B001344DB000B4403F5BC7300221A604A
:102BAC00FA7B796813469B001344DB000B4403F556
:102BBC00BE7300221A60FA7B796813469B0013449B
:102BCC00DB000B4403F5C07300221A60FB7B01335E
:102BDC00FB73FA7B7B685B689A42B5D37B681B6896
:102BEC003B607E686D4606F110040FCC0FC5236860
:102BFC002B60331D0ECB386803F022FB0346002BF1
:102C0C0005D07B68022283F8A92201230DE07B68A2
:102C1C00002283F824207B68012283F8A9227B6898
:102C2C001B68184605F0A3FD002318461437BD4653
:102C3C00F0BD80B582B000AF78607B6893F8A832A5
:102C4C00012B01D1022316E07B68012283F8A82214
:102C5C007B681B68184603F0B7FA0121786807F007
:102C6C006EFE7B681B68184605F077FD7B680022BA
:102C7C0083F8A822002318460837BD4680BD80B5CE
:102C8C0088B000AF78607B681B68184605F079FD4A
:102C9C00B861BB6903F40043002B03D0786800F0E3
:102CAC001BFB19E1BB6903F48063002B13D07B6819
:102CBC001B68B3F844309AB27B681B6822F48062BC
:102CCC0092B2A3F84420786807F041FC00217868A0
:102CDC0000F005F900E1BB6903F48043002B0CD034
:102CEC007B681B68B3F844309AB27B681B6822F48B
:102CFC00804292B2A3F84420EEE0BB6903F4005387
:102D0C00002B0CD07B681B68B3F844309AB27B68FC
:102D1C001B6822F4005292B2A3F84420DCE0BB6999
:102D2C0003F48053002B27D07B681B68B3F840302A
:102D3C009AB27B681B6822F0040292B2A3F840207E
:102D4C007B681B68B3F840309AB27B681B6822F032
:102D5C00080292B2A3F84020786807F031FC7B6837
:102D6C001B68B3F844309AB27B681B6822F480521B
:102D7C0092B2A3F84420AFE0BB6903F40063002BCC
:102D8C0000F083800023FB7710E07B681B681A46F9
:102D9C00FB7F9B001A44FB7F128892B25B002033AE
:102DAC003B4423F8182CFB7F0133FB77FB7F072B6D
:102DBC00EBD97B681B68B3F840309AB27B681B6810
:102DCC0042F0010292B2A3F840207B681B68B3F872
:102DDC0040309AB27B681B6822F0010292B2A3F8D1
:102DEC00402000BF7B681B68B3F844309BB203F4EF
:102DFC008063002BF6D07B681B68B3F844309AB222
:102E0C007B681B6822F4806292B2A3F844200023F2
:102E1C00FB770FE0FB7F7A6812681146FA7F92000D
:102E2C000A445B0020333B4433F8183C1380FB7F8F
:102E3C000133FB77FB7F072BECD97B681B68B3F85E
:102E4C0040309AB27B681B6842F0080292B2A3F839
:102E5C0040207B681B68B3F844309AB27B681B68CF
:102E6C0022F4006292B2A3F844207B681B68B3F88A
:102E7C0040309AB27B681B6842F0040292B2A3F80D
:102E8C004020786807F082FB26E0BB6903F40073EE
:102E9C00002B0FD07B681B68B3F844309AB27B6868
:102EAC001B6822F4007292B2A3F84420786807F0F1
:102EBC0040FB11E0BB6903F48073002B0CD07B68E2
:102ECC001B68B3F844309AB27B681B6822F480729A
:102EDC0092B2A3F8442000BF2037BD4680BD80B518
:102EEC0082B000AF78600B46FB707B6893F8A83219
:102EFC00012B01D1022313E07B68012283F8A82265
:102F0C007B68FA7883F824207B681B68FA78114672
:102F1C00184605F00FFC7B68002283F8A8220023DA
:102F2C0018460837BD4680BD80B584B000AF7860C8
:102F3C00084611461A460346FB700B463B80134667
:102F4C00BB700023FB7297F90330002B0EDAFB7871
:102F5C0003F007035A1C13469B001344DB007A68EA
:102F6C001344FB60FB6801225A700EE0FB7803F0FF
:102F7C00070213469B001344DB0003F5B4737A6815
:102F8C001344FB60FB6800225A70FB7803F00703C4
:102F9C00DAB2FB681A703A88FB681A61FB68BA7877
:102FAC00DA70BB78022B02D1FB6800221A717B68A5
:102FBC0093F8A832012B01D102230EE07B68012289
:102FCC0083F8A8227B681B68F968184603F058F947
:102FDC007B68002283F8A822FB7A18461037BD467E
:102FEC0080BD80B584B000AF78600B46FB7097F95C
:102FFC000330002B0EDAFB7803F007035A1C134640
:10300C009B001344DB007A681344FB60FB680122CD
:10301C005A700EE0FB7803F0070213469B00134432
:10302C00DB0003F5B4737A681344FB60FB68002281
:10303C005A70FB7803F00703DAB2FB681A707B68EE
:10304C0093F8A832012B01D102230EE07B680122F8
:10305C0083F8A8227B681B68F968184603F0D0FC3B
:10306C007B68002283F8A822002318461037BD463F
:10307C0080BD80B586B000AFF8607A603B600B46CF
:10308C00FB72FB7A03F0070213469B001344DB0030
:10309C0003F5B473FA6813447B617B697A685A61EF
:1030AC007B693A689A617B690022DA617B6900224C
:1030BC005A70FB7A03F00703DAB27B691A70FB686B
:1030CC001B687969184603F087FE002318461837E9
:1030DC00BD4680BD80B483B000AF78600B46FB70FA
:1030EC00FB7803F00702796813469B001344DB005E
:1030FC000B4403F5C2731B6818460C37BD4680BCE5
:10310C00704780B586B000AFF8607A603B600B46C4
:10311C00FB72FB7A03F007035A1C13469B00134403
:10312C00DB00FA6813447B617B697A685A617B69BE
:10313C003A689A617B69012283F824207B693A689A
:10314C001A627B690022DA617B6901225A70FB7A70
:10315C0003F00703DAB27B691A70FB681B687969A4
:10316C00184603F039FE002318461837BD4680BDBB
:10317C0080B584B000AF78600B46FB70FB7803F031
:10318C0007027B685B689A4201D901234CE097F9EE
:10319C000330002B0EDAFB7803F007035A1C13469E
:1031AC009B001344DB007A681344FB60FB6801222C
:1031BC005A700CE0FA7813469B001344DB0003F5BD
:1031CC00B4737A681344FB60FB6800225A70FB6886
:1031DC0001229A70FB7803F00703DAB2FB681A70CD
:1031EC007B6893F8A832012B01D102231CE07B6889
:1031FC00012283F8A8227B681B68F968184605F041
:10320C009CF9FB7803F00703002B08D17B681A6844
:10321C007B6803F52C731946104605F0C1FA7B68E0
:10322C00002283F8A822002318461037BD4680BD23
:10323C0080B584B000AF78600B46FB70FB7803F070
:10324C000F027B685B689A4201D9012340E097F931
:10325C000330002B0EDAFB7803F007035A1C1346DD
:10326C009B001344DB007A681344FB60FB6801226B
:10327C005A700EE0FB7803F0070213469B001344D0
:10328C00DB0003F5B4737A681344FB60FB6800221F
:10329C005A70FB6800229A70FB7803F00703DAB2CD
:1032AC00FB681A707B6893F8A832012B01D10223BA
:1032BC000EE07B68012283F8A8227B681B68F96802
:1032CC00184605F08AF97B68002283F8A8220023AF
:1032DC0018461037BD4680BD80B596B000AF7860FB
:1032EC00BEE37B681B68B3F84430A7F84E30B7F8E0
:1032FC004E30DBB203F00F0387F84D3097F84D30AA
:10330C00002B40F07881B7F84E3003F01003002BFF
:10331C0051D17B681B681B889BB223F4E14323F0DB
:10332C007003FB817B681A68FB896FEA43436FEA81
:10333C0053439BB213807B6828337B657B681B6887
:10334C00B3F850309BB21A467B6D1B78DB001344EC
:10335C0002335B007A681268134403F580631B88A0
:10336C00C3F309027B6DDA617B6D5A697B6DDB6996
:10337C001A447B6D5A610021786807F0C0F87B68AD
:10338C0093F82430DBB2002B00F06A837B6D9B69D1
:10339C00002B40F065837B6893F82430DBB263F03C
:1033AC007F03DAB27B681B68A3F84C207B68002291
:1033BC0083F8242054E37B6803F5B4737B657B6846
:1033CC001B681B88A7F84A30B7F84A3003F400632F
:1033DC00002B34D07B681B68B3F850309BB21A4674
:1033EC007B6D1B78DB00134406335B007A68126834
:1033FC00134403F580631B88C3F309027B6DDA6108
:10340C007B6818687B6803F52C717B6DDA887B6DA3
:10341C00DB699BB205F014FA7B681B681B889AB2B7
:10342C0040F68F7313403B827B681B683A8A42F0EC
:10343C00800292B21A80786807F034F810E3B7F97A
:10344C004A30002B80F20C837B681B681B889AB275
:10345C0040F68F731340FB837B681B68FA8B42F03A
:10346C00800292B21A807B681B68B3F850309BB212
:10347C001A467B6D1B78DB00134406335B007A68BD
:10348C001268134403F580631B88C3F309027B6D38
:10349C00DA617B6DDB69002B19D07B6D5B69002BCE
:1034AC0015D07B6818687B6D59697B6DDA887B6DEC
:1034BC00DB699BB205F0C4F97B6D5A697B6DDB69E6
:1034CC001A447B6D5A610021786806F0FDFF7B6819
:1034DC001B681B88A7F84A30B7F84A3003F400631E
:1034EC00002B40F0BD82B7F84A3003F44053B3F5DB
:1034FC00405F00F0B5827B681B68BB617B681B6812
:10350C00B3F850309BB21A46BB691344BB61BB691C
:10351C0003F20C437B617B691B889BB2C3F30903E9
:10352C009AB27B691A807B6D1B693E2B1DD97B6D12
:10353C001B695B097B647B6D1B6903F01F03002B0C
:10354C0002D17B6C013B7B647B691B889AB27B6CE0
:10355C009BB29B029BB213439BB26FEA43436FEA4D
:10356C0053439AB27B691A8026E07B6D1B69002B52
:10357C000AD17B691B889BB26FEA43436FEA5343C2
:10358C009AB27B691A8017E07B6D1B695B087B64C0
:10359C007B6D1B6903F00103002B02D07B6C0133A4
:1035AC007B647B691B889AB27B6C9BB29B029BB23F
:1035BC0013439AB27B691A807B681B681B889BB289
:1035CC0023F4804323F070037B827B8A83F4805343
:1035DC007B827B8A83F400537B827B681A687B8AAC
:1035EC0043F07F4343F47F0343F4004343F08003F1
:1035FC009BB2138034E27B681B681A4697F84D30F7
:10360C009B0013441B88A7F84A30B7F94A30002BAB
:10361C0080F2FC807B681B681A4697F84D309B0043
:10362C0013441B889AB240F68F731340A7F84830A6
:10363C007B681B681A4697F84D309B001344B7F80B
:10364C00482042F0800292B21A8097F84D2013461F
:10365C009B001344DB0003F5B4737A6813447B6559
:10366C007B6D1B7B002B25D17B681B68B3F850301E
:10367C009BB21A467B6D1B78DB00134406335B0050
:10368C007A681268134403F580631B88C3F309033B
:10369C00A7F85030B7F85030002B00F092807B68C0
:1036AC0018687B6D59697B6DDA88B7F8503005F076
:1036BC00C7F886E07B6DDB78022B0AD1B7F84A306D
:1036CC001A46796D786800F0D9F90346A7F850309E
:1036DC0077E07B681B681A467B6D1B789B00134454
:1036EC001B889BB223F4E04323F07003A7F85230FD
:1036FC007B681B681A467B6D1B789B001A44B7F8D5
:10370C00523043F07F4343F47F0343F4004343F0D0
:10371C00C0039BB213807B681B681A467B6D1B78B9
:10372C009B0013441B889BB203F48043002B24D0D2
:10373C007B681B68B3F850309BB21A467B6D1B78C4
:10374C00DB00134402335B007A681268134403F500
:10375C0080631B88C3F30903A7F85030B7F85030C7
:10376C00002B2ED07B6818687B6D59697B6D1A898C
:10377C00B7F8503005F064F823E07B681B68B3F8A9
:10378C0050309BB21A467B6D1B78DB00134406331A
:10379C005B007A681268134403F580631B88C3F3DB
:1037AC000903A7F85030B7F85030002B09D07B68CC
:1037BC0018687B6D59697B6D5A89B7F8503005F0E4
:1037CC003FF87B6DDA69B7F850301A447B6DDA61DB
:1037DC007B6D5A69B7F850301A447B6D5A617B6D1A
:1037EC009B69002B05D0B7F850207B6D1B699A4262
:1037FC0006D27B6D1B781946786806F065FE05E0ED
:10380C007B681B68796D184603F0E6FAB7F84A3006
:10381C0003F08003002B00F0238197F84D305A1CE5
:10382C0013469B001344DB007A6813447B657B686A
:10383C001B681A4697F84D309B0013441B889BB2AB
:10384C0023F4E14323F07003A7F842307B681B6834
:10385C001A4697F84D309B001A44B7F842306FEA7D
:10386C0043436FEA53439BB213807B6DDB78012B90
:10387C0040F0A2807B6D00229A617B6D1B7B002B3C
:10388C0000F09380B7F84A3003F04003002B46D089
:10389C007B6D5B78002B26D17B681B687B627B6819
:1038AC001B68B3F850309BB21A467B6A13447B6298
:1038BC007B6D1B781A017B6A134403F204433B6251
:1038CC003B6A1B889BB2C3F309039AB23B6A1A800A
:1038DC003B6A1B889BB26FEA43436FEA53439AB22D
:1038EC003B6A1A8061E07B6D5B78012B5DD17B6854
:1038FC001B68FB627B681B68B3F850309BB21A469E
:10390C00FB6A1344FB627B6D1B781A01FB6A134440
:10391C0003F20443BB62BB6A00221A8045E07B6859
:10392C001B68FB637B6D5B78002B26D17B681B6867
:10393C007B637B681B68B3F850309BB21A467B6B79
:10394C0013447B637B6D1B781A017B6B134403F26E
:10395C000C433B633B6B1B889BB2C3F309039AB2CA
:10396C003B6B1A803B6B1B889BB26FEA43436FEA3D
:10397C0053439AB23B6B1A8017E07B6D5B78012B3B
:10398C0013D17B681B68B3F850309BB21A46FB6BA3
:10399C001344FB637B6D1B781A01FB6B134403F21E
:1039AC000C43BB63BB6B00221A807B6D1B781946E2
:1039BC00786806F0A4FD53E0B7F84A3003F480733E
:1039CC00002B46D17B681B68B3F850309BB21A466B
:1039DC007B6D1B78DB00134402335B007A68126842
:1039EC00134403F580631B88C3F30903A7F8403025
:1039FC007B6D9A69B7F840309A4207D97B6D9A690A
:103A0C00B7F84030D21A7B6D9A6102E07B6D0022D0
:103A1C009A617B6D9B69002B06D17B6D1B781946D7
:103A2C00786806F06CFD1BE07B6D5A69B7F8403086
:103A3C001A447B6D5A617B6DDA69B7F840301A44D1
:103A4C007B6DDA617B681B68796D184603F0C4F9ED
:103A5C0006E0B7F84A301A46796D786800F01BF921
:103A6C007B681B68B3F844309BB21BB2002BFFF68B
:103A7C0038AC002318465837BD4680BD80B588B099
:103A8C0000AFF860B9601346FB80FB8803F48043F9
:103A9C00002B7ED0FB681B68B3F850309BB21A46E3
:103AAC00BB681B78DB00134402335B00FA681268B6
:103ABC00134403F580631B88C3F309037B83BB6842
:103ACC009A697B8B9A4206D3BB689A697B8BD21A14
:103ADC00BB689A6102E0BB6800229A61BB689B6973
:103AEC00002B23D1FB681B681A46BB681B789B0014
:103AFC0013441B889BB223F4804323F070033B8355
:103B0C003B8B83F400533B83FB681B681A46BB68F2
:103B1C001B789B001A443B8B43F07F4343F47F0399
:103B2C0043F4004343F080039BB21380FB8803F003
:103B3C004003002B1FD0FB681B681A46BB681B7820
:103B4C009B0013441B889BB223F4E04323F07003C7
:103B5C00FB82FB681B681A46BB681B789B001A44E7
:103B6C00FB8A43F07F4343F47F0343F4004343F069
:103B7C00C0039BB213807B8B002B00F08780FB680B
:103B8C001868BB685969BB681A897B8B04F058FEAE
:103B9C007CE0FB681B68B3F850309BB21A46BB68DC
:103BAC001B78DB00134406335B00FA68126813447D
:103BBC0003F580631B88C3F309037B83BB689A6995
:103BCC007B8B9A4206D3BB689A697B8BD21ABB68F3
:103BDC009A6102E0BB6800229A61BB689B69002B6A
:103BEC0023D1FB681B681A46BB681B789B001344E7
:103BFC001B889BB223F4804323F07003FB83FB8B65
:103C0C0083F40053FB83FB681B681A46BB681B7864
:103C1C009B001A44FB8B43F07F4343F47F0343F434
:103C2C00004343F080039BB21380FB8803F04003F6
:103C3C00002B1FD1FB681B681A46BB681B789B00C6
:103C4C0013441B889BB223F4E04323F07003BB8323
:103C5C00FB681B681A46BB681B789B001A44BB8B1D
:103C6C0043F07F4343F47F0343F4004343F0C0032A
:103C7C009BB213807B8B002B08D0FB681868BB6849
:103C8C005969BB685A897B8B04F0DAFD7B8B18462B
:103C9C002037BD4680BD80B5A4B000AFF860B960D8
:103CAC001346FB80FB8803F04003002B00F0DD8102
:103CBC00FB681B68B3F850309BB21A46BB681B7884
:103CCC00DB00134402335B00FA681268134403F5FB
:103CDC0080631B88C3F30903A7F88630BB689A6915
:103CEC00B7F886309A4207D9BB689A69B7F886301C
:103CFC00D21ABB689A6102E0BB6800229A61BB6869
:103D0C009B69002B40F0B980BB685B78002B26D1F7
:103D1C00FB681B68FB62FB681B68B3F850309BB2F6
:103D2C001A46FB6A1344FB62BB681B781A01FB6AD8
:103D3C00134403F20443BB62BB6A1B889BB2C3F3FC
:103D4C0009039AB2BB6A1A80BB6A1B889BB26FEAE2
:103D5C0043436FEA53439AB2BB6A1A801AE0BB68BA
:103D6C005B78012B16D1FB681B687B63FB681B68B7
:103D7C00B3F850309BB21A467B6B13447B63BB6821
:103D8C001B781A017B6B134403F204433B633B6BBC
:103D9C0000221A80FB681B687B62BB685B78002B77
:103DAC0026D1FB681B68FB61FB681B68B3F85030BD
:103DBC009BB21A46FB691344FB61BB681B781A0162
:103DCC00FB69134403F20C43BB61BB691B889BB2B8
:103DDC00C3F309039AB2BB691A80BB691B889BB2F7
:103DEC006FEA43436FEA53439AB2BB691A8017E0F8
:103DFC00BB685B78012B13D1FB681B68B3F85030A0
:103E0C009BB21A467B6A13447B62BB681B781A010F
:103E1C007B6A134403F20C433B623B6A00221A8018
:103E2C00BB681B781946F86806F069FBFB8803F43D
:103E3C008043002B00F0FC82FB681B681A46BB68B1
:103E4C001B789B0013441B889BB223F4E04323F0A4
:103E5C007003FB82FB681B681A46BB681B789B00CF
:103E6C001A44FB8A43F07F4343F47F0343F44043FB
:103E7C0043F080039BB21380DAE2FB8803F48043A7
:103E8C00002B21D0FB681B681A46BB681B789B0073
:103E9C0013441B889BB223F4E04323F07003A7F870
:103EAC008A30FB681B681A46BB681B789B001A4457
:103EBC00B7F88A3043F07F4343F47F0343F4404325
:103ECC0043F080039BB21380BB6893F82430012B22
:103EDC0040F0AE82BB685A69B7F886301A44BB68AA
:103EEC005A61BB68DA69B7F886301A44BB68DA6184
:103EFC00BB681A6ABB681B699A420BD3BB681B6907
:103F0C00C7F88C30BB681A6AD7F88C30D21ABB68E9
:103F1C001A6217E0BB681B6A002B08D1B7F8863011
:103F2C00C7F88C30BB68002283F824200AE0BB68F9
:103F3C00002283F82420BB681B6AC7F88C30BB684E
:103F4C0000221A62BB685B78002B65D1FB681B688A
:103F5C00FB63FB681B68B3F850309BB21A46FB6BD3
:103F6C001344FB63BB681B781A01FB6B134403F20D
:103F7C000443BB63BB6B1B889BB2C3F309039AB2AC
:103F8C00BB6B1A80D7F88C303E2B1DD9D7F88C30F0
:103F9C005B09BB64D7F88C3003F01F03002B02D1F4
:103FAC00BB6C013BBB64BB6B1B889AB2BB6C9BB2FA
:103FBC009B029BB213439BB26FEA43436FEA53439A
:103FCC009AB2BB6B1A8044E0D7F88C30002B0AD124
:103FDC00BB6B1B889BB26FEA43436FEA53439AB2A5
:103FEC00BB6B1A8035E0D7F88C305B08BB64D7F814
:103FFC008C3003F00103002B02D0BB6C0133BB648B
:10400C00BB6B1B889AB2BB6C9BB29B029BB21343DB
:10401C009AB2BB6B1A801CE0BB685B78012B18D181
:10402C00FB681B687B64FB681B68B3F850309BB261
:10403C001A467B6C13447B64BB681B781A017B6C3F
:10404C00134403F204433B64D7F88C309AB23B6CB4
:10405C001A80FB681868BB685969BB681A89D7F85D
:10406C008C309BB204F0A7FBE2E1FB681B68B3F851
:10407C0050309BB21A46BB681B78DB0013440633E6
:10408C005B00FA681268134403F580631B88C3F362
:10409C000903A7F88630BB689A69B7F886309A424C
:1040AC0007D3BB689A69B7F88630D21ABB689A6195
:1040BC0002E0BB6800229A61BB689B69002B40F050
:1040CC00C080BB685B78002B26D1FB681B68FB6744
:1040DC00FB681B68B3F850309BB21A46FB6F134455
:1040EC00FB67BB681B781A01FB6F134403F2044394
:1040FC00BB67BB6F1B889BB2C3F309039AB2BB6F40
:10410C001A80BB6F1B889BB26FEA43436FEA534321
:10411C009AB2BB6F1A801AE0BB685B78012B16D180
:10412C00FB681B687B66FB681B68B3F850309BB25E
:10413C001A467B6E13447B66BB681B781A017B6E38
:10414C00134403F204433B663B6E00221A80FB6867
:10415C001B687B67BB685B78002B2BD1FB681B68EB
:10416C00FB66FB681B68B3F850309BB21A46FB6EBB
:10417C001344FB66BB681B781A01FB6E134403F2F5
:10418C000C43C7F88030D7F880301B889BB2C3F340
:10419C0009039AB2D7F880301A80D7F880301B8880
:1041AC009BB26FEA43436FEA53439AB2D7F880301D
:1041BC001A8017E0BB685B78012B13D1FB681B6876
:1041CC00B3F850309BB21A467B6F13447B67BB68C5
:1041DC001B781A017B6F134403F20C433B673B6F54
:1041EC0000221A80BB681B781946F86806F087F91C
:1041FC00FB8803F48043002B40F01A81FB681B689A
:10420C001A46BB681B789B0013441B889BB223F493
:10421C00E04323F07003A7F88830FB681B681A464C
:10422C00BB681B789B001A44B7F8883043F07F4377
:10423C0043F47F0343F4404343F080039BB2138069
:10424C00F6E0FB8803F48043002B21D1FB681B684C
:10425C001A46BB681B789B0013441B889BB223F443
:10426C00E04323F07003A7F84E30FB681B681A4636
:10427C00BB681B789B001A44B7F84E3043F07F4361
:10428C0043F47F0343F4404343F080039BB2138019
:10429C00BB6893F82430012B40F0CA80BB685A6984
:1042AC00B7F886301A44BB685A61BB68DA69B7F84C
:1042BC0086301A44BB68DA61BB681A6ABB681B6932
:1042CC009A420BD3BB681B69C7F88C30BB681A6A5F
:1042DC00D7F88C30D21ABB681A6217E0BB681B6A1D
:1042EC00002B08D1B7F88630C7F88C30BB68002299
:1042FC0083F824200AE0BB681B6AC7F88C30BB68C3
:10430C0000221A62BB68002283F82420FB681B6819
:10431C007B65BB685B78002B65D1FB681B68FB6514
:10432C00FB681B68B3F850309BB21A46FB6D134404
:10433C00FB65BB681B781A01FB6D134403F20C433D
:10434C00BB65BB6D1B889BB2C3F309039AB2BB6DF3
:10435C001A80D7F88C303E2B1DD9D7F88C305B09DE
:10436C00BB66D7F88C3003F01F03002B02D1BB6E59
:10437C00013BBB66BB6D1B889AB2BB6E9BB29B02AA
:10438C009BB213439BB26FEA43436FEA53439AB217
:10439C00BB6D1A8041E0D7F88C30002B0AD1BB6D75
:1043AC001B889BB26FEA43436FEA53439AB2BB6DCF
:1043BC001A8032E0D7F88C305B08BB66D7F88C30AB
:1043CC0003F00103002B02D0BB6E0133BB66BB6D47
:1043DC001B889AB2BB6E9BB29B029BB213439AB2E0
:1043EC00BB6D1A8019E0BB685B78012B15D1FB689B
:1043FC001B68B3F850309BB21A467B6D13447B6537
:10440C00BB681B781A017B6D134403F20C433B65AC
:10441C00D7F88C309AB23B6D1A80FB681868BB6871
:10442C005969BB685A89D7F88C309BB204F0C3F930
:10443C00FB681B681A46BB681B789B0013441B88DF
:10444C009BB223F4E04323F04003BB82BB8A83F08E
:10445C001003BB82BB8A83F02003BB82FB681B6802
:10446C001A46BB681B789B001A44BB8A43F07F43F7
:10447C0043F47F0343F4004343F080039BB2138067
:10448C00002318469037BD4680BD80B487B000AF7E
:10449C00F8607B600B467B8113463B817B8903F084
:1044AC0080039BB2002B0BD07B8903F007035A1CB3
:1044BC0013469B001344DB00FA6813447B6109E04C
:1044CC007A8913469B001344DB0003F5B473FA6836
:1044DC0013447B613B89002B07D17B6900221A7343
:1044EC007B689AB27B69DA800BE07B6901221A73D4
:1044FC007B689AB27B691A817B681B0C9AB27B69C8
:10450C005A81002318461C37BD4680BC70470000FA
:10451C0080B586B000AF78607B68002B01D1012399
:10452C0072E27B681B6803F00103002B00F08780AC
:10453C00924B5B6803F00C03042B0CD08F4B5B6825
:10454C0003F00C03082B12D18C4B5B6803F4803303
:10455C00B3F5803F0BD1894B1B6803F40033002B60
:10456C006CD07B685B68002B68D101234CE27B68C4
:10457C005B68B3F5803F06D1804B1B687F4A43F4E0
:10458C00803313602EE07B685B68002B0CD17B4B77
:10459C001B687A4A23F480331360784B1B68774A84
:1045AC0023F4802313601DE07B685B68B3F5A02FB8
:1045BC000CD1724B1B68714A43F4802313606F4B10
:1045CC001B686E4A43F4803313600BE06B4B1B6823
:1045DC006A4A23F480331360684B1B68674A23F4E0
:1045EC00802313607B685B68002B13D0FCF788FF7B
:1045FC00386108E0FCF784FF02463B69D31A642B50
:10460C0001D9032300E25D4B1B6803F40033002B3C
:10461C00F0D014E0FCF774FF386108E0FCF770FF91
:10462C0002463B69D31A642B01D90323ECE1534BAB
:10463C001B6803F40033002BF0D100E000BF7B6853
:10464C001B6803F00203002B63D04C4B5B6803F038
:10465C000C03002B0BD0494B5B6803F00C03082BAD
:10466C001CD1464B5B6803F48033002B16D1434BB3
:10467C001B6803F00203002B05D07B681B69012B20
:10468C0001D00123C0E13D4B1B6823F0F8027B688D
:10469C005B69DB00394913430B603AE07B681B69AB
:1046AC00002B20D0364B01221A60FCF729FF386111
:1046BC0008E0FCF725FF02463B69D31A022B01D90F
:1046CC000323A1E12D4B1B6803F00203002BF0D058
:1046DC002A4B1B6823F0F8027B685B69DB002749D7
:1046EC0013430B6015E0264B00221A60FCF708FF01
:1046FC00386108E0FCF704FF02463B69D31A022B31
:10470C0001D9032380E11D4B1B6803F00203002B2E
:10471C00F0D17B681B6803F00803002B3AD07B6850
:10472C009B69002B19D0174B01221A60FCF7E8FE8D
:10473C00386108E0FCF7E4FE02463B69D31A022B11
:10474C0001D9032360E10D4B5B6A03F00203002BDC
:10475C00F0D0012000F0CEFA1CE00A4B00221A60C7
:10476C00FCF7CEFE38610FE0FCF7CAFE02463B694F
:10477C00D31A022B08D9032346E100BF00100240D4
:10478C000000424280044242924B5B6A03F00203F7
:10479C00002BE9D17B681B6803F00403002B00F0AD
:1047AC00A6800023FB758B4BDB6903F08053002B39
:1047BC000DD1884BDB69874A43F08053D361854B1D
:1047CC00DB6903F08053BB60BB680123FB75824B34
:1047DC001B6803F48073002B18D17F4B1B687E4A37
:1047EC0043F480731360FCF78BFE386108E0FCF730
:1047FC0087FE02463B69D31A642B01D9032303E1DC
:10480C00754B1B6803F48073002BF0D07B68DB685E
:10481C00012B06D16F4B1B6A6E4A43F001031362E6
:10482C002DE07B68DB68002B0CD16A4B1B6A694A54
:10483C0023F001031362674B1B6A664A23F00403DF
:10484C0013621CE07B68DB68052B0CD1614B1B6A87
:10485C00604A43F0040313625E4B1B6A5D4A43F0EB
:10486C00010313620BE05B4B1B6A5A4A23F00103F2
:10487C001362584B1B6A574A23F0040313627B687C
:10488C00DB68002B15D0FCF73BFE38610AE0FCF727
:10489C0037FE02463B69D31A41F28832934201D962
:1048AC000323B1E04B4B1B6A03F00203002BEED049
:1048BC0014E0FCF725FE38610AE0FCF721FE024605
:1048CC003B69D31A41F28832934201D903239BE00E
:1048DC00404B1B6A03F00203002BEED1FB7D012B36
:1048EC0005D13C4BDB693B4A23F08053D3617B6899
:1048FC00DB69002B00F08780364B5B6803F00C0300
:10490C00082B61D07B68DB69022B46D1334B00222C
:10491C001A60FCF7F5FD386108E0FCF7F1FD024682
:10492C003B69D31A022B01D903236DE0294B1B6879
:10493C0003F00073002BF0D17B681B6AB3F5803F4A
:10494C0008D1244B5B6823F400327B689B682149B7
:10495C0013434B601F4B5B6823F474127B68196A1A
:10496C007B685B6A0B431B4913434B601B4B012257
:10497C001A60FCF7C5FD386108E0FCF7C1FD024682
:10498C003B69D31A022B01D903233DE0114B1B6861
:10499C0003F00073002BF0D035E0104B00221A60AE
:1049AC00FCF7AEFD386108E0FCF7AAFD02463B6956
:1049BC00D31A022B01D9032326E0064B1B6803F004
:1049CC000073002BF0D11EE07B68DB69012B07D153
:1049DC00012319E0001002400070004060004242C8
:1049EC000B4B5B68FB60FB6803F480327B681B6AD3
:1049FC009A4206D1FB6803F470127B685B6A9A4298
:104A0C0001D0012300E0002318461837BD4680BDB5
:104A1C000010024080B584B000AF786039607B68CC
:104A2C00002B01D10123D0E06A4B1B6803F0070374
:104A3C003A689A4210D9674B1B6823F00702654904
:104A4C003B6813430B60634B1B6803F007033A6826
:104A5C009A4201D00123B8E07B681B6803F0020383
:104A6C00002B20D07B681B6803F00403002B05D0BF
:104A7C00594B5B68584A43F4E06353607B681B688E
:104A8C0003F00803002B05D0534B5B68524A43F4E8
:104A9C0060535360504B5B6823F0F0027B689B685B
:104AAC004D4913434B607B681B6803F00103002BDB
:104ABC0040D07B685B68012B07D1474B1B6803F424
:104ACC000033002B15D101237FE07B685B68022B40
:104ADC0007D1414B1B6803F00073002B09D1012354
:104AEC0073E03D4B1B6803F00203002B01D1012343
:104AFC006BE0394B5B6823F003027B685B683649DB
:104B0C0013434B60FCF7FCFCF8600AE0FCF7F8FC84
:104B1C000246FB68D31A41F28832934201D903232F
:104B2C0053E02D4B5B6803F00C027B685B689B00C9
:104B3C009A42EBD1274B1B6803F007033A689A4261
:104B4C0010D2244B1B6823F0070222493B68134305
:104B5C000B60204B1B6803F007033A689A4201D0A4
:104B6C00012332E07B681B6803F00403002B08D0A0
:104B7C00194B5B6823F4E0627B68DB6816491343CE
:104B8C004B607B681B6803F00803002B09D0124BA9
:104B9C005B6823F460527B681B69DB000E4913438E
:104BAC004B6000F021F802460B4B5B681B0903F0CD
:104BBC000F030A49CB5C22FA03F3094A1360094B31
:104BCC001B681846FCF75AFC002318461037BD46E4
:104BDC0080BD00BF002002400010024070AA0008F7
:104BEC00040000200800002080B487B000AF002330
:104BFC00FB600023BB6000237B6100237B600023F0
:104C0C003B611E4B5B68FB60FB6803F00C03042BE1
:104C1C0002D0082B03D027E0194B3B6127E0FB683F
:104C2C009B0C03F00F03174AD35C7B60FB6803F407
:104C3C008033002B10D0114B5B685B0C03F001032D
:104C4C00114AD35CBB607B680D4A03FB02F2BB6864
:104C5C00B2FBF3F37B6104E07B680C4A02FB03F3C9
:104C6C007B617B693B6102E0054B3B6100BF3B69AB
:104C7C0018461C37BD4680BC704700BF0010024070
:104C8C0000127A0088AA000898AA000800093D00C2
:104C9C0080B400AF024B1B681846BD4680BC704701
:104CAC000400002080B500AFFFF7F2FF0246054B71
:104CBC005B681B0A03F007030349CB5C22FA03F37E
:104CCC00184680BD0010024080AA000880B500AFD5
:104CDC00FFF7DEFF0246054B5B68DB0A03F00703B8
:104CEC000349CB5C22FA03F3184680BD0010024046
:104CFC0080AA000880B485B000AF78600A4B1B68AE
:104D0C000A4AA2FB03235B0A7A6802FB03F3FB60EB
:104D1C0000BFFB685A1EFA60002BF9D100BF00BF20
:104D2C001437BD4680BC704704000020D34D621080
:104D3C0080B586B000AF786000233B610023FB6038
:104D4C007B681B6803F00103002B7DD00023FB75EF
:104D5C004F4BDB6903F08053002B0DD14C4BDB69BF
:104D6C004B4A43F08053D361494BDB6903F08053CA
:104D7C00BB60BB680123FB75464B1B6803F4807357
:104D8C00002B18D1434B1B68424A43F480731360C9
:104D9C00FCF7B6FB386108E0FCF7B2FB02463B6956
:104DAC00D31A642B01D903236DE03A4B1B6803F42F
:104DBC008073002BF0D0364B1B6A03F44073FB60FE
:104DCC00FB68002B2ED07B685B6803F44073FA6899
:104DDC009A4227D02E4B1B6A23F44073FB602E4B58
:104DEC0001221A602C4B00221A60294AFB681362BC
:104DFC00FB6803F00103002B14D0FCF781FB386136
:104E0C000AE0FCF77DFB02463B69D31A41F288327B
:104E1C00934201D9032336E01D4B1B6A03F00203B6
:104E2C00002BEED01A4B1B6A23F440727B685B6834
:104E3C00174913430B62FB7D012B05D1144BDB6926
:104E4C00134A23F08053D3617B681B6803F0020381
:104E5C00002B08D00E4B5B6823F440427B689B68A8
:104E6C000B4913434B607B681B6803F01003002B4A
:104E7C0008D0074B5B6823F480027B68DB6804492D
:104E8C0013434B60002318461837BD4680BD00BF46
:104E9C0000100240007000404004424280B582B0D5
:104EAC0000AF78607B68002B01D1012341E07B6867
:104EBC0093F83D30DBB2002B06D17B68002283F8DF
:104ECC003C207868FCF7B6F97B68022283F83D2019
:104EDC007B681A687B6804331946104600F074FA34
:104EEC007B68012283F846207B68012283F83E20F0
:104EFC007B68012283F83F207B68012283F84020E5
:104F0C007B68012283F841207B68012283F84220D0
:104F1C007B68012283F843207B68012283F84420BC
:104F2C007B68012283F845207B68012283F83D20B1
:104F3C00002318460837BD4680BD000080B485B0FC
:104F4C0000AF78607B6893F83D30DBB2012B01D069
:104F5C0001233AE07B68022283F83D207B681B68C2
:104F6C00DA687B681B6842F00102DA607B681B68B8
:104F7C00184A93420ED07B681B68B3F1804F09D05E
:104F8C007B681B68144A934204D07B681B68134AE5
:104F9C00934211D17B681B689B6803F00703FB608D
:104FAC00FB68062B10D07B681B681A687B681B6833
:104FBC0042F001021A6007E07B681B681A687B6884
:104FCC001B6842F001021A60002318461437BD46D4
:104FDC0080BC7047002C01400004004000080040D9
:104FEC0080B582B000AF78607B681B681B6903F0EA
:104FFC000203022B22D17B681B68DB6803F00203DF
:10500C00022B1BD17B681B686FF002021A617B6854
:10501C0001221A777B681B689B6903F00303002B42
:10502C0003D0786800F0B4F905E0786800F0A7F9CF
:10503C00786800F0B6F97B6800221A777B681B68E9
:10504C001B6903F00403042B22D17B681B68DB680B
:10505C0003F00403042B1BD17B681B686FF0040264
:10506C001A617B6802221A777B681B689B6903F4C0
:10507C004073002B03D0786800F08AF905E078685B
:10508C0000F07DF9786800F08CF97B6800221A77C3
:10509C007B681B681B6903F00803082B22D17B6813
:1050AC001B68DB6803F00803082B1BD17B681B68AB
:1050BC006FF008021A617B6804221A777B681B6800
:1050CC00DB6903F00303002B03D0786800F060F970
:1050DC0005E0786800F053F9786800F062F97B68B5
:1050EC0000221A777B681B681B6903F01003102BD6
:1050FC0022D17B681B68DB6803F01003102B1BD1DB
:10510C007B681B686FF010021A617B6808221A77A3
:10511C007B681B68DB6903F44073002B03D0786851
:10512C0000F036F905E0786800F029F9786800F0AD
:10513C0038F97B6800221A777B681B681B6903F0BF
:10514C000103012B0ED17B681B68DB6803F00103A4
:10515C00012B07D17B681B686FF001021A6178681C
:10516C00FBF71CF87B681B681B6903F08003802B22
:10517C000ED17B681B68DB6803F08003802B07D1A2
:10518C007B681B686FF080021A61786800F07BFA0C
:10519C007B681B681B6903F04003402B0ED17B68B6
:1051AC001B68DB6803F04003402B07D17B681B684E
:1051BC006FF040021A61786800F0FCF87B681B689D
:1051CC001B6903F02003202B0ED17B681B68DB6866
:1051DC0003F02003202B07D17B681B686FF02002A3
:1051EC001A61786800F046FA00BF0837BD4680BDEA
:1051FC0080B584B000AF786039600023FB737B68A6
:10520C0093F83C30012B01D10223B4E07B680122DE
:10521C0083F83C207B68022283F83D207B681B6866
:10522C009B68BB60BB6823F07703BB60BB6823F44F
:10523C007F43BB607B681B68BA689A603B681B68DD
:10524C00B3F5005F3ED0B3F5005F00F28780B3F595
:10525C00805F00F08680B3F5805F7FD8702B1AD00A
:10526C00702B7BD8602B50D0602B77D8502B3CD038
:10527C00502B73D8402B58D0402B6FD8302B64D088
:10528C00302B6BD8202B60D0202B67D8002B5CD018
:10529C00102B5AD062E07B6818683B6899683B68B1
:1052AC005A683B68DB6800F068F97B681B689B6890
:1052BC00BB60BB6843F07703BB607B681B68BA6854
:1052CC009A604FE07B6818683B6899683B685A683D
:1052DC003B68DB6800F051F97B681B689A687B6857
:1052EC001B6842F480429A603CE07B6818683B681B
:1052FC0059683B68DB681A4600F0C8F87B681B6885
:10530C005021184600F01FF92CE07B6818683B68A8
:10531C0059683B68DB681A4600F0E6F87B681B6846
:10532C006021184600F00FF91CE07B6818683B6898
:10533C0059683B68DB681A4600F0A8F87B681B6864
:10534C004021184600F0FFF80CE07B681A683B68B7
:10535C001B681946104600F0F6F803E00123FB73B6
:10536C0000E000BF7B68012283F83D207B680022AF
:10537C0083F83C20FB7B18461037BD4680BD80B4BB
:10538C0083B000AF786000BF0C37BD4680BC70475F
:10539C0080B483B000AF786000BF0C37BD4680BCD2
:1053AC00704780B483B000AF786000BF0C37BD4647
:1053BC0080BC704780B483B000AF786000BF0C37FE
:1053CC00BD4680BC7047000080B485B000AF7860EB
:1053DC0039607B681B68FB607B68294A93420BD061
:1053EC007B68B3F1804F07D07B68264A934203D089
:1053FC007B68254A934208D1FB6823F07003FB605D
:10540C003B685B68FA681343FB607B681C4A9342F9
:10541C000BD07B68B3F1804F07D07B68194A93425D
:10542C0003D07B68184A934208D1FB6823F440737D
:10543C00FB603B68DB68FA681343FB60FB6823F096
:10544C0080023B685B691343FB607B68FA681A60F7
:10545C003B689A687B68DA623B681A687B689A6278
:10546C007B68074A934203D13B681A697B681A63CD
:10547C007B6801225A6100BF1437BD4680BC70475F
:10548C00002C0140000400400008004080B487B0AC
:10549C0000AFF860B9607A60FB681B6A7B61FB68DF
:1054AC001B6A23F00102FB681A62FB689B693B6173
:1054BC003B6923F0F0033B617B681B013A691343A2
:1054CC003B617B6923F00A037B617A69BB681343F8
:1054DC007B61FB683A699A61FB687A691A6200BF62
:1054EC001C37BD4680BC704780B487B000AFF860F5
:1054FC00B9607A60FB681B6A7B61FB681B6A23F0EE
:10550C001002FB681A62FB689B693B613B6923F4E0
:10551C0070433B617B681B033A6913433B617B69B6
:10552C0023F0A0037B61BB681B017A6913437B6189
:10553C00FB683A699A61FB687A691A6200BF1C378A
:10554C00BD4680BC704780B485B000AF78603960D0
:10555C007B689B68FB60FB6823F07003FB603A6818
:10556C00FB68134343F00703FB607B68FA689A609F
:10557C0000BF1437BD4680BC704780B487B000AF05
:10558C00F860B9607A603B60FB689B687B617B6903
:10559C0023F47F437B613B681A027B681A43BB6828
:1055AC0013437A6913437B61FB687A699A6000BF85
:1055BC001C37BD4680BC704780B485B000AF7860A6
:1055CC0039607B6893F83C30012B01D1022346E013
:1055DC007B68012283F83C207B68022283F83D2003
:1055EC007B681B685B68FB607B681B689B68BB60A7
:1055FC00FB6823F07003FB603B681B68FA6813437D
:10560C00FB607B681B68FA685A607B681B68164AEB
:10561C0093420ED07B681B68B3F1804F09D07B6836
:10562C001B68124A934204D07B681B68104A934251
:10563C000CD1BB6823F08003BB603B685B68BA6825
:10564C001343BB607B681B68BA689A607B68012255
:10565C0083F83D207B68002283F83C200023184609
:10566C001437BD4680BC7047002C0140000400403C
:10567C000008004080B483B000AF786000BF0C37E6
:10568C00BD4680BC704780B483B000AF786000BF6B
:10569C000C37BD4680BC704780B582B000AF7860D7
:1056AC007B68002B01D1012342E07B6893F84130E9
:1056BC00DBB2002B06D17B68002283F8402078688F
:1056CC00FBF7F2FD7B68242283F841207B681B6882
:1056DC00DA687B681B6822F40052DA60786800F0A4
:1056EC00D5FC7B681B681A697B681B6822F49042A6
:1056FC001A617B681B685A697B681B6822F02A0256
:10570C005A617B681B68DA687B681B6842F400523C
:10571C00DA607B6800225A647B68202283F841207F
:10572C007B68202283F842207B6800225A63002386
:10573C0018460837BD4680BD80B584B000AFF86010
:10574C00B9601346FB80FB6893F84230DBB2202B28
:10575C0012D1BB68002B02D0FB88002B01D1012396
:10576C000BE0FB6800221A63FB881A46B968F868DC
:10577C0000F0B7FA034600E0022318461037BD4686
:10578C0080BD000080B5BAB000AF78607B681B6844
:10579C001B68C7F8E4307B681B68DB68C7F8E0302F
:1057AC007B681B685B69C7F8DC300023C7F8D8300E
:1057BC000023C7F8D430D7F8E43003F00F03C7F850
:1057CC00D830D7F8D830002B0FD1D7F8E43003F00D
:1057DC002003002B09D0D7F8E03003F02003002B76
:1057EC0003D0786800F093FB5BE2D7F8D830002B3D
:1057FC0000F0DE80D7F8DC3003F00103002B06D17B
:10580C00D7F8E03003F49073002B00F0D180D7F878
:10581C00E43003F00103002B0BD0D7F8E03003F495
:10582C008073002B05D07B685B6C43F001027B68B6
:10583C005A64D7F8E43003F00403002B0BD0D7F8EC
:10584C00DC3003F00103002B05D07B685B6C43F06C
:10585C0002027B685A64D7F8E43003F00203002B91
:10586C000BD0D7F8DC3003F00103002B05D07B689C
:10587C005B6C43F004027B685A64D7F8E43003F0A5
:10588C000803002B11D0D7F8E03003F02003002BD5
:10589C0005D1D7F8DC3003F00103002B05D07B6871
:1058AC005B6C43F008027B685A647B685B6C002B72
:1058BC0000F0F281D7F8E43003F02003002B08D07D
:1058CC00D7F8E03003F02003002B02D0786800F00A
:1058DC001EFB7B681B685B6903F04003002B14BF45
:1058EC0001230023DBB2C7F8D4307B685B6C03F078
:1058FC000803002B03D1D7F8D430002B4FD0786895
:10590C0000F028FA7B681B685B6903F04003002BEE
:10591C0041D07B681B681433C7F89C30D7F89C3097
:10592C0053E8003FC7F89830D7F8983023F040037D
:10593C00C7F8D0307B681B681433D7F8D020C7F871
:10594C00A820C7F8A430D7F8A410D7F8A82041E8AD
:10595C000023C7F8A030D7F8A030002BD9D17B6832
:10596C00DB6B002B13D07B68DB6B7E4A5A637B6846
:10597C00DB6B1846FCF7B8FB0346002B16D07B6894
:10598C00DB6B5B6B7A68D26B104698470EE07868DD
:10599C0000F093F90AE0786800F08FF906E0786877
:1059AC0000F08BF97B6800225A6475E100BF73E14B
:1059BC007B681B6B012B40F04F81D7F8E43003F070
:1059CC001003002B00F04881D7F8E03003F01003EF
:1059DC00002B00F041810023BB607B681B681B68B7
:1059EC00BB607B681B685B68BB60BB687B681B68C3
:1059FC005B6903F04003002B00F0B6807B68DB6B27
:105A0C001B685B68A7F8BE30B7F8BE30002B00F0FF
:105A1C0045817B689B8DB7F8BE209A4280F03E8111
:105A2C007B68B7F8BE20DA857B68DB6B9B69202B23
:105A3C0000F088807B681B680C33C7F88830D7F877
:105A4C00883053E8003FC7F88430D7F8843023F40B
:105A5C008073C7F8B8307B681B680C33D7F8B82054
:105A6C00C7F89420C7F89030D7F89010D7F8942046
:105A7C0041E80023C7F88C30D7F88C30002BD9D1F3
:105A8C007B681B6814337B677B6F53E8003F3B6775
:105A9C003B6F23F00103C7F8B4307B681B681433E9
:105AAC00D7F8B420C7F88020FB67F96FD7F88020AF
:105ABC0041E80023BB67BB6F002BE1D17B681B68FF
:105ACC0014333B663B6E53E8003FFB65FB6D23F0E4
